:020000040800F2
:100000000028002095160008111600081716000891
:100010001D1600082316000829160008000000001D
:100020000000000000000000000000002F16000883
:100030003B16000800000000471600085316000891
:10004000DD160008DD160008DD160008DD160008C4
:10005000DD160008DD160008DD160008DD160008B4
:10006000DD160008DD160008DD160008DD160008A4
:10007000DD160008DD160008DD160008DD16000894
:10008000DD160008DD160008DD160008DD16000884
:10009000DD160008DD160008DD160008DD16000874
:1000A000DD160008DD160008DD160008DD16000864
:1000B00061160008DD16000800000000DD160008CB
:1000C000DD1600080000000000000000DD1600083A
:1000D00000000000DD160008DD160008000000002A
:1000E000DD160008DD160008DD160008000000001F
:1000F0000000000000000000000000000000000000
:0C01000000000000000000005FF808F1A3
:10010C0010B5054C237833B9044B13B10448AFF345
:10011C0000800123237010BD20000020000000008F
:10012C00342D000808B5034B1BB103490348AFF34A
:10013C00008008BD0000000024000020342D0008C1
:10014C0080B582B000AF78607B68092B00F28381A8
:10015C0001A252F823F000BF8D010008D501000860
:10016C001D02000865020008AD020008F502000837
:10017C003D03000885030008CD03000815040008A2
:10018C0001224021B64801F0A6FD00220121B4480D
:10019C0001F0A1FD00220221B14801F09CFD0022DA
:1001AC000421AF4801F097FD00220821AC4801F072
:1001BC0092FD00221021AA4801F08DFD0022202181
:1001CC00A74801F088FD46E101224021A44801F036
:1001DC0082FD01220121A24801F07DFD00220221B5
:1001EC009F4801F078FD002204219D4801F073FD29
:1001FC00012208219A4801F06EFD01221021984835
:10020C0001F069FD01222021954801F064FD22E1F5
:10021C0000220121924801F05EFD01220421904848
:10022C0001F059FD002208218D4801F054FD0022F7
:10023C0010218B4801F04FFD00224021884801F02D
:10024C004AFD00220221864801F045FD01222021B1
:10025C00834801F040FDFEE000220121804801F0BE
:10026C003AFD002202217E4801F035FD00220421D6
:10027C007B4801F030FD00220821794801F02BFD6C
:10028C0001221021764801F026FD0122202174481C
:10029C0001F021FD00224021714801F01CFDDAE043
:1002AC00012201216E4801F016FD002202216C484A
:1002BC0001F011FD00220421694801F00CFD01221E
:1002CC000821674801F007FD01221021644801F064
:1002DC0002FD00222021624801F0FDFC0022402199
:1002EC005F4801F0F8FCB6E0002201215C4801F007
:1002FC00F2FC012202215A4801F0EDFC00220421FB
:10030C00574801F0E8FC00220821554801F0E3FCB5
:10031C0001221021524801F0DEFC0022202150481D
:10032C0001F0D9FC002240214D4801F0D4FC92E0B0
:10033C00002201214A4801F0CEFC0122022148484A
:10034C0001F0C9FC00220421454801F0C4FC002244
:10035C000821434801F0BFFC00221021404801F065
:10036C00BAFC002220213E4801F0B5FC00224021BD
:10037C003B4801F0B0FC6EE000220121384801F04E
:10038C00AAFC00220221364801F0A5FC002204211F
:10039C00334801F0A0FC01220821314801F09BFCFC
:1003AC00012210212E4801F096FC012220212C481C
:1003BC0001F091FC01224021294801F08CFC4AE01B
:1003CC0000220121264801F086FC0022022124484B
:1003DC0001F081FC00220421214801F07CFC002268
:1003EC0008211F4801F077FC002210211C4801F065
:1003FC0072FC002220211A4801F06DFC00224021E1
:10040C00174801F068FC26E001221021144801F085
:10041C0062FC00220121124801F05DFC0022022145
:10042C000F4801F058FC002204210D4801F053FC48
:10043C00002208210A4801F04EFC00222021084825
:10044C0001F049FC00224021054801F044FC4FF02A
:10045C00FF337B6000BF00BF0837BD4680BD00BFC7
:10046C00000C014080B582B000AF78607B68092B2E
:10047C0000F2838101A252F823F000BFB1040008FE
:10048C00F90400084105000889050008D105000899
:10049C001906000861060008A9060008F106000804
:1004AC003907000801224021B64801F014FC002253
:1004BC000121B44801F00FFC00220221B14801F0E7
:1004CC000AFC00220421AF4801F005FC002208219F
:1004DC00AC4801F000FC00221021AA4801F0FBFB03
:1004EC0000222021A74801F0F6FB46E10122402121
:1004FC00A44801F0F0FB01220121A24801F0EBFB22
:10050C00002202219F4801F0E6FB002204219D48B5
:10051C0001F0E1FB012208219A4801F0DCFB0122E9
:10052C001021984801F0D7FB01222021954801F0B9
:10053C00D2FB22E100220121924801F0CCFB0122E6
:10054C000421904801F0C7FB002208218D4801F0DE
:10055C00C2FB002210218B4801F0BDFB0022402180
:10056C00884801F0B8FB00220221864801F0B3FB59
:10057C0001222021834801F0AEFBFEE00022012184
:10058C00804801F0A8FB002202217E4801F0A3FB69
:10059C00002204217B4801F09EFB002208217948AF
:1005AC0001F099FB01221021764801F094FB012205
:1005BC002021744801F08FFB00224021714801F08A
:1005CC008AFBDAE0012201216E4801F084FB002253
:1005DC0002216C4801F07FFB00220421694801F0E4
:1005EC007AFB01220821674801F075FB01221021DA
:1005FC00644801F070FB00222021624801F06BFB83
:10060C00002240215F4801F066FBB6E00022012188
:10061C005C4801F060FB012202215A4801F05BFBAF
:10062C0000220421574801F056FB002208215548AE
:10063C0001F051FB01221021524801F04CFB002229
:10064C002021504801F047FB002240214D4801F089
:10065C0042FB92E0002201214A4801F03CFB0122BE
:10066C000221484801F037FB00220421454801F0E3
:10067C0032FB00220821434801F02DFB00221021FF
:10068C00404801F028FB002220213E4801F023FBCA
:10069C00002240213B4801F01EFB6EE000220121AC
:1006AC00384801F018FB00220221364801F013FBF8
:1006BC0000220421334801F00EFB012208213148AD
:1006CC0001F009FB012210212E4801F004FB01224C
:1006DC0020212C4801F0FFFA01224021294801F089
:1006EC00FAFA4AE000220121264801F0F4FA00222D
:1006FC000221244801F0EFFA00220421214801F0E4
:10070C00EAFA002208211F4801F0E5FA0022102124
:10071C001C4801F0E0FA002220211A4801F0DBFA13
:10072C0000224021174801F0D6FA26E001221021C0
:10073C00144801F0D0FA00220121124801F0CBFA42
:10074C00002202210F4801F0C6FA002204210D48B4
:10075C0001F0C1FA002208210A4801F0BCFA00227B
:10076C002021084801F0B7FA00224021054801F089
:10077C00B2FA4FF0FF337B6000BF00BF0837BD46B5
:10078C0080BD00BF0008014080B582B000AF78602A
:10079C007B68092B00F2BF8101A252F823F000BF45
:1007AC00D5070008290800087D080008D1080008B2
:1007BC002509000879090008CD090008210A00085C
:1007CC00750A0008C90A000801224FF40051D448E8
:1007DC0001F081FA00228021D14801F07CFA00223C
:1007EC004FF48071CE4801F076FA00224FF400717C
:1007FC00CB4801F070FA00224FF48061C84801F038
:10080C006AFA00224FF40061C54801F064FA002234
:10081C004FF48051C24801F05EFA7CE101224FF4A2
:10082C000051BF4801F057FA01228021BC4801F069
:10083C0052FA00224FF48071B94801F04CFA0022B0
:10084C004FF40071B64801F046FA01224FF4806172
:10085C00B34801F040FA01224FF40061B04801F0B6
:10086C003AFA01224FF48051AD4801F034FA52E1CA
:10087C0000228021AA4801F02EFA01224FF40071C7
:10088C00A74801F028FA00224FF48061A44801F037
:10089C0022FA00224FF40061A14801F01CFA002258
:1008AC004FF400519E4801F016FA00224FF480716B
:1008BC009B4801F010FA01224FF48051984801F046
:1008CC000AFA28E100228021954801F004FA00225E
:1008DC004FF48071924801F0FEF900224FF4007140
:1008EC008F4801F0F8F900224FF480618C4801F038
:1008FC00F2F901224FF40061894801F0ECF9012270
:10090C004FF48051864801F0E6F900224FF4005173
:10091C00834801F0E0F9FEE001228021804801F0DB
:10092C00DAF900224FF480717D4801F0D4F90022ED
:10093C004FF400717A4801F0CEF901224FF4806136
:10094C00774801F0C8F901224FF40061744801F0B6
:10095C00C2F900224FF48051714801F0BCF9002219
:10096C004FF400516E4801F0B6F9D4E0002280211A
:10097C006B4801F0B0F901224FF48071684801F026
:10098C00AAF900224FF40071654801F0A4F9002285
:10099C004FF48061624801F09EF901224FF400612E
:1009AC005F4801F098F900224FF480515C4801F047
:1009BC0092F900224FF40051594801F08CF9AAE049
:1009CC0000228021564801F086F901224FF48071F3
:1009DC00534801F080F900224FF40071504801F0A7
:1009EC007AF900224FF480614D4801F074F900222D
:1009FC004FF400614A4801F06EF900224FF4805127
:100A0C00474801F068F900224FF40051444801F0C6
:100A1C0062F980E000228021414801F05CF900225B
:100A2C004FF480713E4801F056F900224FF40071EA
:100A3C003B4801F050F901224FF48061384801F035
:100A4C004AF901224FF40061354801F044F90122C2
:100A5C004FF48051324801F03EF901224FF400511D
:100A6C002F4801F038F956E0002280212C4801F083
:100A7C0032F900224FF48071294801F02CF9002240
:100A8C004FF40071264801F026F900224FF48061E2
:100A9C00234801F020F900224FF40061204801F0B6
:100AAC001AF900224FF480511D4801F014F900226C
:100ABC004FF400511A4801F00EF92CE001224FF4CA
:100ACC000061174801F007F900228021144801F059
:100ADC0002F900224FF48071114801F0FCF8002259
:100AEC004FF400710E4801F0F6F800224FF48061CB
:100AFC000B4801F0F0F800224FF48051084801F047
:100B0C00EAF800224FF40051054801F0E4F84FF0E8
:100B1C00FF337B6000BF00BF0837BD4680BD00BF00
:100B2C000008014080B582B000AF786039603B6846
:100B3C00012B3BD100224FF48041394801F0CBF816
:100B4C007B68092B09DC0020FFF7FAFA7868FFF7BD
:100B5C0089FC7868FFF718FE5DE07A68314B83FBFF
:100B6C0002139910D317C91A0B469B000B445B0058
:100B7C00D11A0846FFF776FC7A682A4B83FB0213DE
:100B8C009910D317C91A0B469B000B445B00D11A62
:100B9C000846FFF7F9FD7B68224A82FB031292108C
:100BAC00DB17D31A1846FFF7CBFA34E03B68022B5D
:100BBC0005D03B68032B02D03B68042B2BD10122C0
:100BCC004FF48041164801F086F87B68092B06DC4F
:100BDC000020FFF7B5FA7868FFF744FC18E07A6854
:100BEC00104B83FB02139910D317C91A0B469B00A9
:100BFC000B445B00D11A0846FFF734FC7B68094AAA
:100C0C0082FB03129210DB17D31A1846FFF798FADF
:100C1C003868FFF7B9FD00BF0837BD4680BD00BF7F
:100C2C00000801406766666680B485B000AFF86066
:100C3C00B9607A603B60FB681A78BB681B78134418
:100C4C00DAB27B681B781344DAB23B681A7000BFC7
:100C5C001437BD4680BC704780B582B000AF00230E
:100C6C00FB7163E0FB79954AD35C012B02D0022B1C
:100C7C0019D058E0FB79002B02D1914B00221A704D
:100C8C00FB79184600F092FA0346012B48D1FB7908
:100C9C00184600F071FA0346002B41D1FB79874AC4
:100CAC000221D1543CE0864B1B78002B25D1FB79DB
:100CBC00002B22D1834B1B78013B032B1AD801A2AA
:100CCC0052F823F0E10C0008E90C0008F10C0008C4
:100CDC00F90C00087B4B02221A700BE0794B0322B3
:100CEC001A7007E0774B04221A7003E0754B01224F
:100CFC001A7000BF724B01221A70FB79184600F073
:100D0C0055FA0346002B0DD1FB79184600F034FA46
:100D1C000346012B06D1FB79684A0121D15401E02D
:100D2C0000BF00E000BFFB790133FB71FB79022BA4
:100D3C0098D900F0EBF90346002B0CD0624B1B68E2
:100D4C00622B05DC604B1B6801335F4A136002E0C9
:100D5C005D4B01221A605B4B1B78013B032B00F2AD
:100D6C00FB8001A252F823F0850D0008D90D000874
:100D7C004F0E0008ED0E000800F0ECF90346002BB6
:100D8C001AD0524B1878514B9978504B5A784F4B8C
:100D9C00DB7800F025FA4D4BDB78002B06D04B4B63
:100DAC00DB78013BDAB2494BDA7005E0484B494A33
:100DBC0049494648FFF738FF444BDB781A46414B0C
:100DCC001B7819461046FFF7ADFEC5E000F0B0F9F0
:100DDC000346002B08D08021404800F094FF4FF4CC
:100DEC0080613E4800F08FFF344B9B78022B1FD163
:100DFC00364B5B781A46344B1B681344334A927853
:100E0C001344622B0ADC304B1B68DAB22F4B1A707E
:100E1C002F4B304A30492D48FFF706FF2B4BDB7820
:100E2C001A46284B1B7819461046FFF77BFE93E0B9
:100E3C00254B1B68234A127811461846FFF772FEA1
:100E4C008AE000F075F90346002B09D04FF480714D
:100E5C00224800F058FF4FF40061204800F053FF87
:100E6C00164B9B78022B1FD1184B1B781A46174B2D
:100E7C005B781A44144B1B681344622B0ADC124B2C
:100E8C001B68DAB2114B9A70114B124A12490F4877
:100E9C00FFF7CAFE0D4BDB781A460A4B1B78194636
:100EAC001046FFF73FFE57E0074B1B68054A1278C8
:100EBC0011461846FFF736FE4EE000BF0800002032
:100ECC003C000020040000200C000020000000204A
:100EDC00030000200200002001000020000C014053
:100EEC0000F026F90346002B09D04FF400711C4882
:100EFC0000F009FF4FF48051194800F004FF194B22
:100F0C009B78022B1FD1184B1B781A46174B1B686A
:100F1C001344154A92781344622B0ADC134B1B685A
:100F2C00DAB2114B5A70124B124A13490E48FFF7A2
:100F3C007BFE0D4BDB781A46104B1B78194610467E
:100F4C00FFF7F0FD07E0094B1B680C4A12781146BD
:100F5C001846FFF7E7FD00BF00BF0837BD4680BD50
:100F6C00000C014008000020000000200C000020B4
:100F7C0003000020020000200100002004000020DB
:100F8C0090B583B000AF0023FB717FE0FA79FB7959
:100F9C005249895C524AD154FB79022B1CD0022B4A
:100FAC0025DC002B02D0012B0BD020E0FC794FF478
:100FBC0000514C4800F078FE03461A46474B1A5530
:100FCC0015E0FC794FF48041464800F06DFE034675
:100FDC001A46424B1A550AE0FC794FF4004141483D
:100FEC0000F062FE03461A463C4B1A5500BFFB79D3
:100FFC003A4AD25CFB793A49CB5C9A4205D1FA79F0
:10100C00FB793649895C384AD154FB79364AD35C32
:10101C00002B17D1FB79354A0021D154FB79344A86
:10102C0052F82330132B08DCFB79314A52F8232079
:10103C0001322F4941F8232025E0FB792D4A01216B
:10104C00D15420E0FB792A4A002142F82310FB7985
:10105C00294A52F82330092B08DCFB79264A52F82E
:10106C0023200132244941F823200CE0FB79224A49
:10107C00002142F82310FB791E4A0021D154FB7940
:10108C001A4A0121D154FB790133FB71FB79022BF4
:10109C007FF67CAF194B1B78012B06D1184B1B78B4
:1010AC00013BDAB2164B1A7005E0164B1B78013B6C
:1010BC00DAB2144B1A700F4B5B78012B09D10F4B22
:1010CC001B78012B05D0104B1B78013BDAB20E4B71
:1010DC001A7000BF0C37BD4690BD00BF4800002001
:1010EC004C000020000C0140500000204400002067
:1010FC00540000204000002060000020040000206C
:10110C0010000020120000201100002080B400AF5D
:10111C00064B1B78002B04D1044B32221A7001238E
:10112C0000E000231846BD4680BC7047110000202B
:10113C0080B400AF064B1B78002B04D1044B322239
:10114C001A70012300E000231846BD4680BC70478E
:10115C001200002080B400AF064B1B78002B04D18A
:10116C00044B64221A70012300E000231846BD468C
:10117C0080BC70471000002080B483B000AF0346E1
:10118C00FB71FB79022B01D9002307E0FB79064A9E
:10119C00D35C012B01D1012300E0002318460C374E
:1011AC00BD4680BC704700BF4400002080B483B0B3
:1011BC0000AF0346FB71FB79022B01D9FF2307E03B
:1011CC00FB79064AD35C012B01D1012300E00023FB
:1011DC0018460C37BD4680BC704700BF400000204D
:1011EC0090B583B000AF0446084611461A46234614
:1011FC00FB710346BB710B467B7113463B713A790D
:10120C007979BB790B449A4211DD00228021424846
:10121C0000F061FD01224FF480713F4800F05BFD4E
:10122C0001224FF400713C4800F055FD2AE03A7958
:10123C00BB799A4211D901228021374800F04BFD2D
:10124C0001224FF48071344800F045FD00224FF428
:10125C000071314800F03FFD14E03A79BB799A42B5
:10126C0010D8012280212C4800F035FD00224FF4CB
:10127C008071294800F02FFD01224FF4007126489F
:10128C0000F029FD3A79F979BB790B449A4212DDC9
:10129C0001224FF48061204800F01DFD01224FF423
:1012AC0000611D4800F017FD00224FF480511A48D0
:1012BC0000F011FD2CE03A79FB799A4212D9012207
:1012CC004FF48061144800F006FD00224FF40061D9
:1012DC00114800F000FD01224FF480510E4800F03F
:1012EC00FAFC15E03A79FB799A4211D800224FF4B6
:1012FC008061094800F0EFFC01224FF400610648C0
:10130C0000F0E9FC01224FF48051034800F0E3FCAB
:10131C0000BF0C37BD4690BD000C014080B500AF3E
:10132C0000F0D8F900F00CF800F092F800F044F856
:10133C00024801F039F9FFF78FFCFCE76C00002044
:10134C0080B590B000AF07F1180328220021184691
:10135C0001F0E2FC3B1D00221A605A609A60DA60D0
:10136C001A610223BB610123BB621023FB620023C1
:10137C007B6307F11803184600F0DEFC0346002BD4
:10138C0001D000F0E3F80F237B600023BB60002347
:10139C00FB6000233B6100237B613B1D0021184651
:1013AC0000F04AFF0346002B01D000F0CFF800BF3D
:1013BC004037BD4680BD000080B586B000AF07F158
:1013CC00080300221A605A609A60DA603B460022D9
:1013DC001A605A601D4B4FF080421A601B4B41F64D
:1013EC003F725A60194B00229A60184B0922DA603E
:1013FC00164B00221A61154B00229A61134801F01A
:10140C0083F80346002B01D000F0A0F84FF4805372
:10141C00BB6007F1080319460C4801F019FA0346A2
:10142C00002B01D000F092F800233B6000237B607E
:10143C003B461946054801F0E1FB0346002B01D061
:10144C0000F084F800BF1837BD4680BD6C0000204A
:10145C0080B588B000AF07F1100300221A605A6003
:10146C009A60DA60354B9B69344A43F01003936100
:10147C00324B9B6903F01003FB60FB682F4B9B699D
:10148C002E4A43F0040393612C4B9B6903F0040335
:10149C00BB60BB68294B9B69284A43F008039361E6
:1014AC00264B9B6903F008037B607B6800224FF698
:1014BC00FF71234800F00FFC002241F6FF71214818
:1014CC0000F009FC4FF400533B6100237B610123C6
:1014DC00BB6107F1100319461B4800F06BFA4FF67D
:1014EC00FF733B6101237B610023BB610223FB6122
:1014FC0007F110031946124800F05CFA41F6FF732D
:10150C003B6101237B610023BB610223FB6107F17B
:10151C00100319460B4800F04DFA4FF460433B6141
:10152C0000237B610123BB6107F1100319460548B9
:10153C0000F040FA00BF2037BD4680BD00100240CD
:10154C0000080140000C01400010014080B400AFC5
:10155C0072B600BFFEE7000080B485B000AF154B3B
:10156C009B69144A43F001039361124B9B6903F08E
:10157C000103BB60BB680F4BDB690E4A43F0805321
:10158C00D3610C4BDB6903F080537B607B680A4BA7
:10159C005B68FB60FB6823F0E063FB60FB6843F077
:1015AC008063FB60044AFB68536000BF1437BD4680
:1015BC0080BC7047001002400000014080B584B030
:1015CC0000AF78607B681B68B3F1804F13D10C4B74
:1015DC00DB690B4A43F00103D361094BDB6903F070
:1015EC000103FB60FB68002200211C2000F0ABF91A
:1015FC001C2000F0C4F900BF1037BD4680BD00BFF1
:10160C000010024080B400AFFEE780B400AFFEE7EC
:10161C0080B400AFFEE780B400AFFEE780B400AF4B
:10162C00FEE780B400AF00BFBD4680BC704780B4FD
:10163C0000AF00BFBD4680BC704780B400AF00BF98
:10164C00BD4680BC704780B500AF00F089F800BF84
:10165C0080BD000080B500AF024800F0F1FF00BF74
:10166C0080BD00BF6C00002080B400AF00BFBD4641
:10167C0080BC704780B582B000AF7860FFF780FC0B
:10168C0000BF0837BD4680BD0C480D490D4A0023EC
:10169C0002E0D458C4500433C4188C42F9D30A4A1B
:1016AC000A4C002301E013600432A242FBD3FFF783
:1016BC00DBFF01F00DFBFFF731FE7047000000204F
:1016CC0020000020742D000820000020B80000200D
:1016DC00FEE7000080B500AF084B1B68074A43F0DB
:1016EC0010031360032000F023F90F2000F008F81A
:1016FC00FFF732FF0023184680BD00BF00200240D8
:10170C0080B582B000AF7860124B1A68124B1B7810
:10171C0019464FF47A73B3FBF1F3B2FBF3F31846AB
:10172C0000F03BF90346002B01D001230EE07B684F
:10173C000F2B0AD8002279684FF0FF3000F003F924
:10174C00064A7B681360002300E001231846083723
:10175C00BD4680BD140000201C0000201800002095
:10176C0080B400AF054B1B781A46054B1B6813441D
:10177C00034A136000BFBD4680BC70471C000020AC
:10178C00B400002080B400AF024B1B681846BD4665
:10179C0080BC7047B400002080B485B000AF786086
:1017AC007B6803F00703FB600C4BDB68BB60BA681B
:1017BC004FF6FF031340BB60FB681A02BB68134370
:1017CC0043F0BF6343F40033BB60044ABB68D3608F
:1017DC0000BF1437BD4680BC704700BF00ED00E071
:1017EC0080B400AF044BDB681B0A03F007031846F8
:1017FC00BD4680BC704700BF00ED00E080B483B0F4
:10180C0000AF0346FB7197F90730002B0BDBFB791C
:10181C0003F01F02064997F907305B09012000FA13
:10182C0002F241F8232000BF0C37BD4680BC704744
:10183C0000E100E080B483B000AF03463960FB7177
:10184C0097F90730002B0ADB3B68DAB20C4997F9A1
:10185C0007301201D2B20B4483F800230AE03B6834
:10186C00DAB20849FB7903F00F03043B1201D2B240
:10187C000B441A7600BF0C37BD4680BC704700BFC6
:10188C0000E100E000ED00E080B489B000AFF8604A
:10189C00B9607A60FB6803F00703FB61FB69C3F175
:1018AC000703042B28BF0423BB61FB690433062BFD
:1018BC0002D9FB69033B00E000237B614FF0FF3250
:1018CC00BB6902FA03F3DA43BB681A407B699A409E
:1018DC004FF0FF317B6901FA03F3D9437B680B406E
:1018EC00134318462437BD4680BC704780B582B080
:1018FC0000AF78607B68013BB3F1807F01D301239B
:10190C000FE00A4A7B68013B53600F214FF0FF3018
:10191C00FFF790FF054B00229A60044B07221A60D8
:10192C00002318460837BD4680BD00BF10E000E01C
:10193C0080B582B000AF78607868FFF72DFF00BFEC
:10194C000837BD4680BD80B586B000AF0346B96090
:10195C007A60FB7300237B61FFF742FF78617A6842
:10196C00B9687869FFF790FF024697F90F30114676
:10197C001846FFF75FFF00BF1837BD4680BD80B526
:10198C0082B000AF0346FB7197F907301846FFF79A
:10199C0035FF00BF0837BD4680BD80B582B000AFB3
:1019AC0078607868FFF7A2FF034618460837BD46F3
:1019BC0080BD000080B48BB000AF7860396000232C
:1019CC007B6200233B6248E101227B6A02FA03F34B
:1019DC00FB613B681B68FA691340BB61BA69FB6920
:1019EC009A4240F037813B685B68A34A93425ED0D1
:1019FC00A14A934275D8A14A934258D09F4A934228
:101A0C006FD89F4A934252D09D4A934269D89D4ABF
:101A1C0093424CD09B4A934263D89B4A934246D004
:101A2C00994A93425DD8122B2AD8122B59D801A26D
:101A3C0052F823F0BB1A0008951A0008A71A0008E0
:101A4C00E91A0008EF1A0008EF1A0008EF1A00084C
:101A5C00EF1A0008EF1A0008EF1A0008EF1A000836
:101A6C00EF1A0008EF1A0008EF1A0008EF1A000826
:101A7C00EF1A0008EF1A00089D1A0008B11A0008A6
:101A8C00824A934213D02CE03B68DB683B6229E02E
:101A9C003B68DB6804333B6224E03B68DB6808335B
:101AAC003B621FE03B68DB680C333B621AE03B682F
:101ABC009B68002B02D104233B6213E03B689B68BC
:101ACC00012B05D108233B627B68FA691A6109E096
:101ADC0008233B627B68FA695A6103E000233B628E
:101AEC0000E000BFBB69FF2B01D87B6801E07B687D
:101AFC0004337B61BB69FF2B02D87B6A9B0002E03D
:101B0C007B6A083B9B003B617B691A680F213B6930
:101B1C0001FA03F3DB431A40396A3B6901FA03F318
:101B2C001A437B691A603B685B6803F08053002B97
:101B3C0000F09080564B9B69554A43F0010393612A
:101B4C00534B9B6903F00103BB60BB68514A7B6A32
:101B5C009B08023352F82330FB607B6A03F00303CB
:101B6C009B000F2202FA03F3DB43FA681340FB607D
:101B7C007B68494A93420DD07B68484A934207D010
:101B8C007B68474A934201D1022304E0032302E01D
:101B9C00012300E000237A6A02F0030292009340D2
:101BAC00FA681343FB603B497B6A9B080233FA6873
:101BBC0041F823203B685B6803F48033002B06D08C
:101BCC00384B1A683749BB6913430B6006E0354B39
:101BDC001A68BB69DB43334913400B603B685B6895
:101BEC0003F40033002B06D02E4B5A682D49BB69E9
:101BFC0013434B6006E02B4B5A68BB69DB43294906
:101C0C0013404B603B685B6803F48013002B06D0D9
:101C1C00244B9A682349BB6913438B6006E0214B24
:101C2C009A68BB69DB431F4913408B603B685B6858
:101C3C0003F40013002B06D01A4BDA681949BB6960
:101C4C001343CB6006E0174BDA68BB69DB431549DD
:101C5C001340CB607B6A01337B623B681A687B6AFA
:101C6C0022FA03F3002B7FF4AFAE00BF00BF2C377A
:101C7C00BD4680BC704700BF000032100000311020
:101C8C0000002210000021100000121000001110A2
:101C9C00001002400000014000080140000C01400F
:101CAC00001001400004014080B485B000AF7860A2
:101CBC000B467B807B689A687B881340002B02D094
:101CCC000123FB7301E00023FB73FB7B18461437E5
:101CDC00BD4680BC704780B483B000AF78600B46C3
:101CEC007B8013467B707B78002B03D07A887B68D3
:101CFC001A6103E07B881A047B681A6100BF0C37F9
:101D0C00BD4680BC704780B485B000AF78600B4690
:101D1C007B807B68DB68FB607A88FB6813401A0465
:101D2C00FB68D9437B880B401A437B681A6100BF60
:101D3C001437BD4680BC704780B586B000AF786064
:101D4C007B68002B01D101236CE27B681B6803F0DC
:101D5C000103002B00F08780924B5B6803F00C03AF
:101D6C00042B0CD08F4B5B6803F00C03082B12D1A7
:101D7C008C4B5B6803F48033B3F5803F0BD1894BFC
:101D8C001B6803F40033002B6CD07B685B68002B62
:101D9C0068D1012346E27B685B68B3F5803F06D1CE
:101DAC00804B1B687F4A43F4803313602EE07B68C2
:101DBC005B68002B0CD17B4B1B687A4A23F4803375
:101DCC001360784B1B68774A23F4802313601DE063
:101DDC007B685B68B3F5A02F0CD1724B1B68714A02
:101DEC0043F4802313606F4B1B686E4A43F48033BB
:101DFC0013600BE06B4B1B686A4A23F4803313604F
:101E0C00684B1B68674A23F4802313607B685B680C
:101E1C00002B13D0FFF7B6FC386108E0FFF7B2FCDB
:101E2C0002463B69D31A642B01D90323FAE15D4BBB
:101E3C001B6803F40033002BF0D014E0FFF7A2FC76
:101E4C00386108E0FFF79EFC02463B69D31A642B0D
:101E5C0001D90323E6E1534B1B6803F40033002B39
:101E6C00F0D100E000BF7B681B6803F00203002B7D
:101E7C0063D04C4B5B6803F00C03002B0BD0494B2D
:101E8C005B6803F00C03082B1CD1464B5B6803F416
:101E9C008033002B16D1434B1B6803F00203002B3D
:101EAC0005D07B681B69012B01D00123BAE13D4BA6
:101EBC001B6823F0F8027B685B69DB00394913432C
:101ECC000B603AE07B681B69002B20D0364B01225B
:101EDC001A60FFF757FC386108E0FFF753FC024625
:101EEC003B69D31A022B01D903239BE12D4B1B68B1
:101EFC0003F00203002BF0D02A4B1B6823F0F802EE
:101F0C007B685B69DB00274913430B6015E0264BAC
:101F1C0000221A60FFF736FC386108E0FFF732FC4C
:101F2C0002463B69D31A022B01D903237AE11D4BDC
:101F3C001B6803F00203002BF0D17B681B6803F0D5
:101F4C000803002B3AD07B689B69002B19D0174BE8
:101F5C0001221A60FFF716FC386108E0FFF712FC4B
:101F6C0002463B69D31A022B01D903235AE10D4BCC
:101F7C005B6A03F00203002BF0D0012000F0A6FAFC
:101F8C001CE00A4B00221A60FFF7FCFB38610FE0E3
:101F9C00FFF7F8FB02463B69D31A022B08D903233F
:101FAC0040E100BF00100240000042428004424267
:101FBC009E4B5B6A03F00203002BE9D17B681B6824
:101FCC0003F00403002B00F0A6800023FB75974B55
:101FDC00DB6903F08053002B0DD1944BDB69934AE2
:101FEC0043F08053D361914BDB6903F08053BB60AA
:101FFC00BB680123FB758E4B1B6803F48073002BAD
:10200C0018D18B4B1B688A4A43F480731360FFF71B
:10201C00B9FB386108E0FFF7B5FB02463B69D31A00
:10202C00642B01D90323FDE0814B1B6803F48073FF
:10203C00002BF0D07B68DB68012B06D17B4B1B6A35
:10204C007A4A43F0010313622DE07B68DB68002BB6
:10205C000CD1764B1B6A754A23F001031362734B48
:10206C001B6A724A23F0040313621CE07B68DB6872
:10207C00052B0CD16D4B1B6A6C4A43F004031362A5
:10208C006A4B1B6A694A43F0010313620BE0674B0E
:10209C001B6A664A23F001031362644B1B6A634A92
:1020AC0023F0040313627B68DB68002B15D0FFF769
:1020BC0069FB38610AE0FFF765FB02463B69D31AFE
:1020CC0041F28832934201D90323ABE0574B1B6A90
:1020DC0003F00203002BEED014E0FFF753FB386142
:1020EC000AE0FFF74FFB02463B69D31A41F28832F4
:1020FC00934201D9032395E04C4B1B6A03F0020376
:10210C00002BEED1FB7D012B05D1484BDB69474AF7
:10211C0023F08053D3617B68DB69002B00F0818056
:10212C00424B5B6803F00C03082B61D07B68DB69C6
:10213C00022B46D13F4B00221A60FFF723FB38617C
:10214C0008E0FFF71FFB02463B69D31A022B01D9AB
:10215C00032367E0354B1B6803F00073002BF0D1B1
:10216C007B681B6AB3F5803F08D1304B5B6823F466
:10217C0000327B689B682D4913434B602B4B5B688B
:10218C0023F474127B68196A7B685B6A0B432749DA
:10219C0013434B60274B01221A60FFF7F3FA3861A7
:1021AC0008E0FFF7EFFA02463B69D31A022B01D97C
:1021BC00032337E01D4B1B6803F00073002BF0D09A
:1021CC002FE01C4B00221A60FFF7DCFA386108E0A4
:1021DC00FFF7D8FA02463B69D31A022B01D9032325
:1021EC0020E0124B1B6803F00073002BF0D118E0B9
:1021FC007B68DB69012B01D1012313E00B4B5B687E
:10220C00FB60FB6803F480327B681B6A9A4206D140
:10221C00FB6803F470127B685B6A9A4201D001235D
:10222C0000E0002318461837BD4680BD0010024060
:10223C00007000406000424280B584B000AF78600E
:10224C0039607B68002B01D10123D0E06A4B1B68FD
:10225C0003F007033A689A4210D9674B1B6823F0C6
:10226C00070265493B6813430B60634B1B6803F023
:10227C0007033A689A4201D00123B8E07B681B68D7
:10228C0003F00203002B20D07B681B6803F00403CF
:10229C00002B05D0594B5B68584A43F4E0635360FC
:1022AC007B681B6803F00803002B05D0534B5B685D
:1022BC00524A43F460535360504B5B6823F0F00276
:1022CC007B689B684D4913434B607B681B6803F02C
:1022DC000103002B40D07B685B68012B07D1474B77
:1022EC001B6803F40033002B15D101237FE07B68BE
:1022FC005B68022B07D1414B1B6803F00073002B6A
:10230C0009D1012373E03D4B1B6803F00203002B42
:10231C0001D101236BE0394B5B6823F003027B682E
:10232C005B68364913434B60FFF72CFAF8600AE000
:10233C00FFF728FA0246FB68D31A41F2883293421F
:10234C0001D9032353E02D4B5B6803F00C027B682F
:10235C005B689B009A42EBD1274B1B6803F0070389
:10236C003A689A4210D2244B1B6823F00702224988
:10237C003B6813430B60204B1B6803F007033A6860
:10238C009A4201D0012332E07B681B6803F00403FE
:10239C00002B08D0194B5B6823F4E0627B68DB6888
:1023AC00164913434B607B681B6803F00803002B32
:1023BC0009D0124B5B6823F460527B681B69DB000D
:1023CC000E4913434B6000F021F802460B4B5B683F
:1023DC001B0903F00F030A49CB5C22FA03F3094AE9
:1023EC001360094B1B681846FFF78AF9002318463F
:1023FC001037BD4680BD00BF0020024000100240D7
:10240C005C2D0008140000201800002090B48AB045
:10241C0000AF2A4B3C1D0FCB84E80F0040F2012388
:10242C003B800023FB610023BB6100237B62002304
:10243C007B6100233B62224B5B68FB61FB6903F011
:10244C000C03042B02D0082B03D02DE01D4B3B6258
:10245C002DE0FB699B0C03F00F0307F128021344DA
:10246C0013F8243C7B61FB6903F48033002B13D0FD
:10247C00134B5B685B0C03F0010307F12802134458
:10248C0013F8283CBB617B690E4A02FB03F2BB6963
:10249C00B2FBF3F37B6204E07B690B4A02FB03F3B0
:1024AC007B627B6A3B6202E0064B3B6200BF3B6A8D
:1024BC0018462837BD4690BC704700BF4C2D00080D
:1024CC000010024000127A0000093D0080B485B073
:1024DC0000AF78600A4B1B680A4AA2FB03235B0A15
:1024EC007A6802FB03F3FB6000BFFB685A1EFA60BC
:1024FC00002BF9D100BF00BF1437BD4680BC70471C
:10250C0014000020D34D621080B582B000AF78600B
:10251C007B68002B01D1012341E07B6893F83D30AF
:10252C00DBB2002B06D17B68002283F83C20786854
:10253C00FFF744F87B68022283F83D207B681A6819
:10254C007B6804331946104600F06AFA7B68012256
:10255C0083F846207B68012283F83E207B680122A9
:10256C0083F83F207B68012283F840207B6801229E
:10257C0083F841207B68012283F842207B6801228A
:10258C0083F843207B68012283F844207B68012276
:10259C0083F845207B68012283F83D2000231846F0
:1025AC000837BD4680BD000080B485B000AF7860B0
:1025BC007B6893F83D30DBB2012B01D0012335E071
:1025CC007B68022283F83D207B681B68DA687B6895
:1025DC001B6842F00102DA607B681B68164A934262
:1025EC0009D07B681B68B3F1804F04D07B681B68F3
:1025FC00124A934211D17B681B689B6803F0070356
:10260C00FB60FB68062B10D07B681B681A687B6824
:10261C001B6842F001021A6007E07B681B681A68AD
:10262C007B681B6842F001021A60002318461437BD
:10263C00BD4680BC704700BF002C01400004004028
:10264C0080B582B000AF78607B681B681B6903F0B3
:10265C000203022B22D17B681B68DB6803F00203A8
:10266C00022B1BD17B681B686FF002021A617B681E
:10267C0001221A777B681B689B6903F00303002B0C
:10268C0003D0786800F0B1F905E0786800F0A4F99F
:10269C00786800F0B3F97B6800221A777B681B68B6
:1026AC001B6903F00403042B22D17B681B68DB68D5
:1026BC0003F00403042B1BD17B681B686FF004022E
:1026CC001A617B6802221A777B681B689B6903F48A
:1026DC004073002B03D0786800F087F905E0786828
:1026EC0000F07AF9786800F089F97B6800221A7793
:1026FC007B681B681B6903F00803082B22D17B68DD
:10270C001B68DB6803F00803082B1BD17B681B6874
:10271C006FF008021A617B6804221A777B681B68C9
:10272C00DB6903F00303002B03D0786800F05DF93C
:10273C0005E0786800F050F9786800F05FF97B6884
:10274C0000221A777B681B681B6903F01003102B9F
:10275C0022D17B681B68DB6803F01003102B1BD1A4
:10276C007B681B686FF010021A617B6808221A776D
:10277C007B681B68DB6903F44073002B03D078681B
:10278C0000F033F905E0786800F026F9786800F07D
:10279C0035F97B6800221A777B681B681B6903F08C
:1027AC000103012B0ED17B681B68DB6803F001036E
:1027BC00012B07D17B681B686FF001021A617868E6
:1027CC00FEF758FF7B681B681B6903F08003802BA6
:1027DC000ED17B681B68DB6803F08003802B07D16C
:1027EC007B681B686FF080021A61786800F067FAEA
:1027FC007B681B681B6903F04003402B0ED17B6880
:10280C001B68DB6803F04003402B07D17B681B6817
:10281C006FF040021A61786800F0F9F87B681B6869
:10282C001B6903F02003202B0ED17B681B68DB682F
:10283C0003F02003202B07D17B681B686FF020026C
:10284C001A61786800F032FA00BF0837BD4680BDC7
:10285C0080B584B000AF786039607B6893F83C3009
:10286C00012B01D10223B3E07B68012283F83C20C9
:10287C007B68022283F83D207B681B689B68FB60A9
:10288C00FB6823F07703FB60FB6823F47F43FB605A
:10289C007B681B68FA689A603B681B68B3F5005F3D
:1028AC003ED0B3F5005F00F28780B3F5805F00F097
:1028BC008580B3F5805F7FD8702B1AD0702B7BD8B6
:1028CC00602B50D0602B77D8502B3CD0502B73D82A
:1028DC00402B58D0402B6FD8302B64D0302B6BD87A
:1028EC00202B60D0202B67D8002B5CD0102B5AD01B
:1028FC0062E07B6818683B6899683B685A683B687B
:10290C00DB6800F05CF97B681B689B68FB60FB680C
:10291C0043F07703FB607B681B68FA689A604EE0B3
:10292C007B6818683B6899683B685A683B68DB6849
:10293C0000F045F97B681B689A687B681B6842F459
:10294C0080429A603BE07B6818683B6859683B683A
:10295C00DB681A4600F0BCF87B681B6850211846EF
:10296C0000F013F92BE07B6818683B6859683B68EA
:10297C00DB681A4600F0DAF87B681B6860211846A1
:10298C0000F003F91BE07B6818683B6859683B68EA
:10299C00DB681A4600F09CF87B681B6840211846DF
:1029AC0000F0F3F80BE07B681A683B681B6819466B
:1029BC00104600F0EAF802E000BF00E000BF7B68C0
:1029CC00012283F83D207B68002283F83C20002301
:1029DC0018461037BD4680BD80B483B000AF786018
:1029EC0000BF0C37BD4680BC704780B483B000AFCD
:1029FC00786000BF0C37BD4680BC704780B483B094
:102A0C0000AF786000BF0C37BD4680BC704780B407
:102A1C0083B000AF786000BF0C37BD4680BC7047F8
:102A2C0080B485B000AF786039607B681B68FB6050
:102A3C007B68254A934207D07B68B3F1804F03D063
:102A4C007B68224A934208D1FB6823F07003FB6039
:102A5C003B685B68FA681343FB607B681A4A9342D5
:102A6C0007D07B68B3F1804F03D07B68174A934241
:102A7C0008D1FB6823F44073FB603B68DB68FA68A1
:102A8C001343FB60FB6823F080023B685B691343D4
:102A9C00FB607B68FA681A603B689A687B68DA624C
:102AAC003B681A687B689A627B68074A934203D139
:102ABC003B681A697B681A637B6801225A6100BF04
:102ACC001437BD4680BC7047002C01400004004008
:102ADC0080B487B000AFF860B9607A60FB681B6A9D
:102AEC007B61FB681B6A23F00102FB681A62FB68BE
:102AFC009B693B613B6923F0F0033B617B681B01E5
:102B0C003A6913433B617B6923F00A037B617A6961
:102B1C00BB6813437B61FB683A699A61FB687A690D
:102B2C001A6200BF1C37BD4680BC704780B487B0AA
:102B3C0000AFF860B9607A60FB681B6A23F0100282
:102B4C00FB681A62FB689B697B61FB681B6A3B61D3
:102B5C007B6923F470437B617B681B037A691343A5
:102B6C007B613B6923F0A0033B61BB681B013A69A5
:102B7C0013433B61FB687A699A61FB683A691A6294
:102B8C0000BF1C37BD4680BC704780B485B000AF19
:102B9C00786039607B689B68FB60FB6823F070038E
:102BAC00FB603A68FB68134343F00703FB607B68E8
:102BBC00FA689A6000BF1437BD4680BC704780B479
:102BCC0087B000AFF860B9607A603B60FB689B68C7
:102BDC007B617B6923F47F437B613B681A027B68D2
:102BEC001A43BB6813437A6913437B61FB687A69A8
:102BFC009A6000BF1C37BD4680BC704780B485B05E
:102C0C0000AF786039607B6893F83C30012B01D1C0
:102C1C00022341E07B68012283F83C207B6802227E
:102C2C0083F83D207B681B685B68FB607B681B68D6
:102C3C009B68BB60FB6823F07003FB603B681B6800
:102C4C00FA681343FB607B681B68FA685A607B6800
:102C5C001B68144A934209D07B681B68B3F1804F00
:102C6C0004D07B681B68104A93420CD1BB6823F0DC
:102C7C008003BB603B685B68BA681343BB607B68CE
:102C8C001B68BA689A607B68012283F83D207B68D8
:102C9C00002283F83C20002318461437BD4680BC24
:102CAC00704700BF002C01400004004080B483B08A
:102CBC0000AF786000BF0C37BD4680BC704780B455
:102CCC0083B000AF786000BF0C37BD4680BC704746
:102CDC0070B500260C4D0D4C641BA410A64209D1F6
:102CEC0000F022F800260A4D0A4C641BA410A642E0
:102CFC0005D170BD55F8043B98470136EEE755F801
:102D0C00043B98470136F2E76C2D00086C2D000847
:102D1C006C2D0008702D000803460244934200D12C
:102D2C00704703F8011BF9E7F8B500BFF8BC08BC05
:102D3C009E467047F8B500BFF8BC08BC9E4670476D
:102D4C0002030405060708090A0B0C0D0E0F1010E0
:102D5C00000000000000000001020304060708093F
:042D6C003101000829
:042D70000D01000849
:102D74000503020A01000000010101000100000036
:102D8400643232000024F40010000000010000004E
:040000050800169544
:00000001FF
